{
  "contractName": "HAMSAToken",
  "abi": [
    {
      "inputs": [],
      "stateMutability": "nonpayable",
      "type": "constructor"
    },
    {
      "anonymous": false,
      "inputs": [
        {
          "indexed": false,
          "internalType": "address",
          "name": "_insured",
          "type": "address"
        },
        {
          "indexed": false,
          "internalType": "uint256",
          "name": "_value",
          "type": "uint256"
        }
      ],
      "name": "Repayment",
      "type": "event"
    },
    {
      "anonymous": false,
      "inputs": [
        {
          "indexed": false,
          "internalType": "address",
          "name": "_from",
          "type": "address"
        },
        {
          "indexed": false,
          "internalType": "address",
          "name": "_to",
          "type": "address"
        },
        {
          "indexed": false,
          "internalType": "uint256",
          "name": "_value",
          "type": "uint256"
        }
      ],
      "name": "Transfer",
      "type": "event"
    },
    {
      "inputs": [],
      "name": "name",
      "outputs": [
        {
          "internalType": "string",
          "name": "",
          "type": "string"
        }
      ],
      "stateMutability": "view",
      "type": "function",
      "constant": true
    },
    {
      "inputs": [],
      "name": "symbol",
      "outputs": [
        {
          "internalType": "string",
          "name": "",
          "type": "string"
        }
      ],
      "stateMutability": "view",
      "type": "function",
      "constant": true
    },
    {
      "inputs": [],
      "name": "supply",
      "outputs": [
        {
          "internalType": "uint256",
          "name": "",
          "type": "uint256"
        }
      ],
      "stateMutability": "view",
      "type": "function",
      "constant": true
    },
    {
      "inputs": [],
      "name": "balanceOf",
      "outputs": [
        {
          "internalType": "uint256",
          "name": "",
          "type": "uint256"
        }
      ],
      "stateMutability": "view",
      "type": "function",
      "constant": true
    },
    {
      "inputs": [
        {
          "internalType": "address",
          "name": "_from",
          "type": "address"
        },
        {
          "internalType": "address",
          "name": "_to",
          "type": "address"
        },
        {
          "internalType": "uint256",
          "name": "_value",
          "type": "uint256"
        }
      ],
      "name": "transferFrom",
      "outputs": [
        {
          "internalType": "bool",
          "name": "success",
          "type": "bool"
        }
      ],
      "stateMutability": "nonpayable",
      "type": "function"
    },
    {
      "inputs": [
        {
          "internalType": "address",
          "name": "_insured",
          "type": "address"
        },
        {
          "internalType": "uint256",
          "name": "_value",
          "type": "uint256"
        }
      ],
      "name": "repayment",
      "outputs": [
        {
          "internalType": "bool",
          "name": "success",
          "type": "bool"
        }
      ],
      "stateMutability": "nonpayable",
      "type": "function"
    }
  ],
  "bytecode": "0x60806040526040518060400160405280600581526020017f48414d53410000000000000000000000000000000000000000000000000000008152506000908051906020019061004f9291906100fd565b506040518060400160405280600381526020017f484d5300000000000000000000000000000000000000000000000000000000008152506001908051906020019061009b9291906100fd565b5064174876e8006002553480156100b157600080fd5b50600254600360003373ffffffffffffffffffffffffffffffffffffffff1673ffffffffffffffffffffffffffffffffffffffff16815260200190815260200160002081905550610201565b828054610109906101a0565b90600052602060002090601f01602090048101928261012b5760008555610172565b82601f1061014457805160ff1916838001178555610172565b82800160010185558215610172579182015b82811115610171578251825591602001919060010190610156565b5b50905061017f9190610183565b5090565b5b8082111561019c576000816000905550600101610184565b5090565b600060028204905060018216806101b857607f821691505b602082108114156101cc576101cb6101d2565b5b50919050565b7f4e487b7100000000000000000000000000000000000000000000000000000000600052602260045260246000fd5b6109b5806102106000396000f3fe608060405234801561001057600080fd5b50600436106100625760003560e01c8063047fc9aa1461006757806306fdde031461008557806323b872dd146100a3578063722713f7146100d3578063752c4e56146100f157806395d89b4114610121575b600080fd5b61006f61013f565b60405161007c9190610774565b60405180910390f35b61008d610193565b60405161009a9190610732565b60405180910390f35b6100bd60048036038101906100b89190610586565b610221565b6040516100ca9190610717565b60405180910390f35b6100db610396565b6040516100e89190610774565b60405180910390f35b61010b600480360381019061010691906105d5565b6103dd565b6040516101189190610717565b60405180910390f35b6101296104ce565b6040516101369190610732565b60405180910390f35b6000600360003373ffffffffffffffffffffffffffffffffffffffff1673ffffffffffffffffffffffffffffffffffffffff1681526020019081526020016000205460025461018e9190610801565b905090565b600080546101a0906108b0565b80601f01602080910402602001604051908101604052809291908181526020018280546101cc906108b0565b80156102195780601f106101ee57610100808354040283529160200191610219565b820191906000526020600020905b8154815290600101906020018083116101fc57829003601f168201915b505050505081565b600081600360008673ffffffffffffffffffffffffffffffffffffffff1673ffffffffffffffffffffffffffffffffffffffff16815260200190815260200160002054116102a4576040517f08c379a000000000000000000000000000000000000000000000000000000000815260040161029b90610754565b60405180910390fd5b81600360008673ffffffffffffffffffffffffffffffffffffffff1673ffffffffffffffffffffffffffffffffffffffff16815260200190815260200160002060008282546102f39190610801565b9250508190555081600360008573ffffffffffffffffffffffffffffffffffffffff1673ffffffffffffffffffffffffffffffffffffffff168152602001908152602001600020600082825461034991906107ab565b925050819055507fddf252ad1be2c89b69c2b068fc378daa952ba7f163c4a11628f55a4df523b3ef848484604051610383939291906106b7565b60405180910390a1600190509392505050565b6000600360003373ffffffffffffffffffffffffffffffffffffffff1673ffffffffffffffffffffffffffffffffffffffff16815260200190815260200160002054905090565b600081600360003373ffffffffffffffffffffffffffffffffffffffff1673ffffffffffffffffffffffffffffffffffffffff168152602001908152602001600020600082825461042e9190610801565b9250508190555081600360008573ffffffffffffffffffffffffffffffffffffffff1673ffffffffffffffffffffffffffffffffffffffff168152602001908152602001600020600082825461048491906107ab565b925050819055507fbb284f7f8cb8b1b8c98ee9a7d765413efc44bbb17352a0302ada1d737cdaef1b83836040516104bc9291906106ee565b60405180910390a16001905092915050565b600180546104db906108b0565b80601f0160208091040260200160405190810160405280929190818152602001828054610507906108b0565b80156105545780601f1061052957610100808354040283529160200191610554565b820191906000526020600020905b81548152906001019060200180831161053757829003601f168201915b505050505081565b60008135905061056b81610951565b92915050565b60008135905061058081610968565b92915050565b60008060006060848603121561059b57600080fd5b60006105a98682870161055c565b93505060206105ba8682870161055c565b92505060406105cb86828701610571565b9150509250925092565b600080604083850312156105e857600080fd5b60006105f68582860161055c565b925050602061060785828601610571565b9150509250929050565b61061a81610835565b82525050565b61062981610847565b82525050565b600061063a8261078f565b610644818561079a565b935061065481856020860161087d565b61065d81610940565b840191505092915050565b6000610675600a8361079a565b91507f6e6f7420656e6f756768000000000000000000000000000000000000000000006000830152602082019050919050565b6106b181610873565b82525050565b60006060820190506106cc6000830186610611565b6106d96020830185610611565b6106e660408301846106a8565b949350505050565b60006040820190506107036000830185610611565b61071060208301846106a8565b9392505050565b600060208201905061072c6000830184610620565b92915050565b6000602082019050818103600083015261074c818461062f565b905092915050565b6000602082019050818103600083015261076d81610668565b9050919050565b600060208201905061078960008301846106a8565b92915050565b600081519050919050565b600082825260208201905092915050565b60006107b682610873565b91506107c183610873565b9250827fffffffffffffffffffffffffffffffffffffffffffffffffffffffffffffffff038211156107f6576107f56108e2565b5b828201905092915050565b600061080c82610873565b915061081783610873565b92508282101561082a576108296108e2565b5b828203905092915050565b600061084082610853565b9050919050565b60008115159050919050565b600073ffffffffffffffffffffffffffffffffffffffff82169050919050565b6000819050919050565b60005b8381101561089b578082015181840152602081019050610880565b838111156108aa576000848401525b50505050565b600060028204905060018216806108c857607f821691505b602082108114156108dc576108db610911565b5b50919050565b7f4e487b7100000000000000000000000000000000000000000000000000000000600052601160045260246000fd5b7f4e487b7100000000000000000000000000000000000000000000000000000000600052602260045260246000fd5b6000601f19601f8301169050919050565b61095a81610835565b811461096557600080fd5b50565b61097181610873565b811461097c57600080fd5b5056fea2646970667358221220765cf911285122c4279c8f0d57b23438d1fc4d312c63710d354c988450ea8ba964736f6c63430008000033",
  "immutableReferences": {},
  "source": "pragma solidity ^0.8.0;\r\n\r\ncontract HAMSAToken {\r\n\r\n    string public  name = \"HAMSA\";\r\n    string public symbol = \"HMS\";\r\n    uint256 totalSupply = 100000000000;\r\n\r\n    event Transfer(address _from,address _to, uint _value);\r\n    event Repayment(address _insured, uint _value);\r\n\r\n    mapping(address => uint)Balance;\r\n\r\n    constructor() {\r\n        Balance[msg.sender] = totalSupply;\r\n    }\r\n\r\n    function supply() public view returns(uint256){\r\n        return totalSupply - Balance[msg.sender];\r\n    }\r\n\r\n    function balanceOf() public view returns(uint256){\r\n        return Balance[msg.sender];\r\n    }\r\n\r\n    function transferFrom(address _from,address _to, uint256 _value) public returns (bool success){\r\n\r\n        require(Balance[_from] > _value , \"not enough\");\r\n        Balance[_from] -= _value;\r\n        Balance[_to] += _value;\r\n        emit Transfer(_from,_to, _value);\r\n        return true;\r\n    }\r\n\r\n    function repayment(address _insured, uint256 _value) public returns (bool success){\r\n\r\n        Balance[msg.sender] -= _value;\r\n        Balance[_insured] += _value;\r\n        emit Repayment(_insured, _value);\r\n        return true;\r\n    }\r\n}",
  "sourcePath": "C:/Users/domen/PycharmProjects/solidity/insurance/truffle/contracts/HAMSAToken.sol",
  "compiler": {
    "name": "solc",
    "version": "0.8.0+commit.c7dfd78e.Emscripten.clang"
  },
  "schemaVersion": "3.4.1",
  "updatedAt": "2021-05-15T19:45:16.478Z",
  "networkType": "ethereum",
  "devdoc": {
    "kind": "dev",
    "methods": {},
    "version": 1
  },
  "userdoc": {
    "kind": "user",
    "methods": {},
    "version": 1
  }
}